{
  "_format": "hh-sol-artifact-1",
  "contractName": "CYCStake",
  "sourceName": "contracts/CFCStake.sol",
  "abi": [
    {
      "inputs": [
        {
          "internalType": "address",
          "name": "",
          "type": "address"
        }
      ],
      "name": "amounts",
      "outputs": [
        {
          "internalType": "uint256",
          "name": "",
          "type": "uint256"
        }
      ],
      "stateMutability": "view",
      "type": "function"
    },
    {
      "inputs": [
        {
          "internalType": "uint256",
          "name": "d",
          "type": "uint256"
        }
      ],
      "name": "balanceOnDayNumber",
      "outputs": [
        {
          "internalType": "uint256",
          "name": "",
          "type": "uint256"
        }
      ],
      "stateMutability": "view",
      "type": "function"
    },
    {
      "inputs": [],
      "name": "calculateCurrentBalance",
      "outputs": [
        {
          "internalType": "uint256",
          "name": "",
          "type": "uint256"
        }
      ],
      "stateMutability": "view",
      "type": "function"
    },
    {
      "inputs": [],
      "name": "getStaked",
      "outputs": [
        {
          "internalType": "uint256",
          "name": "",
          "type": "uint256"
        },
        {
          "internalType": "uint256",
          "name": "",
          "type": "uint256"
        }
      ],
      "stateMutability": "view",
      "type": "function"
    },
    {
      "inputs": [
        {
          "internalType": "uint256",
          "name": "amount",
          "type": "uint256"
        }
      ],
      "name": "stakeCoins",
      "outputs": [],
      "stateMutability": "nonpayable",
      "type": "function"
    },
    {
      "inputs": [
        {
          "internalType": "address",
          "name": "",
          "type": "address"
        }
      ],
      "name": "starts",
      "outputs": [
        {
          "internalType": "uint256",
          "name": "",
          "type": "uint256"
        }
      ],
      "stateMutability": "view",
      "type": "function"
    },
    {
      "inputs": [],
      "name": "withdraw",
      "outputs": [],
      "stateMutability": "nonpayable",
      "type": "function"
    }
  ],
  "bytecode": "0x608060405273b90a372228c2558f3521524e2bac3d5c29c698c46000806101000a81548173ffffffffffffffffffffffffffffffffffffffff021916908373ffffffffffffffffffffffffffffffffffffffff16021790555060008054906101000a900473ffffffffffffffffffffffffffffffffffffffff16600160006101000a81548173ffffffffffffffffffffffffffffffffffffffff021916908373ffffffffffffffffffffffffffffffffffffffff1602179055503480156100c557600080fd5b50610b28806100d56000396000f3fe608060405234801561001057600080fd5b506004361061007d5760003560e01c80636b9e63401161005b5780636b9e6340146100da5780639d937fcc1461010a578063b6c238b514610126578063c59abf9f146101565761007d565b8063342fe24f146100825780633ccfd60b146100a057806355a3b2c1146100aa575b600080fd5b61008a610175565b6040516100979190610826565b60405180910390f35b6100a86101e8565b005b6100c460048036038101906100bf91906106de565b61032b565b6040516100d19190610826565b60405180910390f35b6100f460048036038101906100ef9190610738565b610343565b6040516101019190610826565b60405180910390f35b610124600480360381019061011f9190610738565b61043d565b005b610140600480360381019061013b91906106de565b6105fc565b60405161014d9190610826565b60405180910390f35b61015e610614565b60405161016c929190610841565b60405180910390f35b60006101e36018610e10600360003373ffffffffffffffffffffffffffffffffffffffff1673ffffffffffffffffffffffffffffffffffffffff16815260200190815260200160002054426101ca919061095c565b6101d491906108d1565b6101de91906108d1565b610343565b905090565b600160009054906101000a900473ffffffffffffffffffffffffffffffffffffffff1673ffffffffffffffffffffffffffffffffffffffff1663a9059cbb3361022f610175565b6040518363ffffffff1660e01b815260040161024c9291906107dd565b602060405180830381600087803b15801561026657600080fd5b505af115801561027a573d6000803e3d6000fd5b505050506040513d601f19601f8201168201806040525081019061029e919061070b565b506000600260003373ffffffffffffffffffffffffffffffffffffffff1673ffffffffffffffffffffffffffffffffffffffff168152602001908152602001600020819055506000600360003373ffffffffffffffffffffffffffffffffffffffff1673ffffffffffffffffffffffffffffffffffffffff16815260200190815260200160002081905550565b60026020528060005260406000206000915090505481565b600080600390506000818461035891906108d1565b9050600082601c6103699190610902565b90506000670de0b6b3a7640000600260003373ffffffffffffffffffffffffffffffffffffffff1673ffffffffffffffffffffffffffffffffffffffff168152602001908152602001600020546103c09190610902565b90506000805b8481101561041c576000620186a085856103e09190610902565b6103ea91906108d1565b905080846103f8919061087b565b93508083610406919061087b565b9250508080610414906109d8565b9150506103c6565b50670de0b6b3a76400008261043191906108d1565b95505050505050919050565b6000600260003373ffffffffffffffffffffffffffffffffffffffff1673ffffffffffffffffffffffffffffffffffffffff16815260200190815260200160002054146104bf576040517f08c379a00000000000000000000000000000000000000000000000000000000081526004016104b690610806565b60405180910390fd5b600160009054906101000a900473ffffffffffffffffffffffffffffffffffffffff1673ffffffffffffffffffffffffffffffffffffffff166323b872dd3330846040518463ffffffff1660e01b815260040161051e939291906107a6565b602060405180830381600087803b15801561053857600080fd5b505af115801561054c573d6000803e3d6000fd5b505050506040513d601f19601f82011682018060405250810190610570919061070b565b5080600260003373ffffffffffffffffffffffffffffffffffffffff1673ffffffffffffffffffffffffffffffffffffffff1681526020019081526020016000208190555042600360003373ffffffffffffffffffffffffffffffffffffffff1673ffffffffffffffffffffffffffffffffffffffff1681526020019081526020016000208190555050565b60036020528060005260406000206000915090505481565b600080600260003373ffffffffffffffffffffffffffffffffffffffff1673ffffffffffffffffffffffffffffffffffffffff16815260200190815260200160002054600360003373ffffffffffffffffffffffffffffffffffffffff1673ffffffffffffffffffffffffffffffffffffffff16815260200190815260200160002054915091509091565b6000813590506106ae81610aad565b92915050565b6000815190506106c381610ac4565b92915050565b6000813590506106d881610adb565b92915050565b6000602082840312156106f4576106f3610a7f565b5b60006107028482850161069f565b91505092915050565b60006020828403121561072157610720610a7f565b5b600061072f848285016106b4565b91505092915050565b60006020828403121561074e5761074d610a7f565b5b600061075c848285016106c9565b91505092915050565b61076e81610990565b82525050565b6000610781601d8361086a565b915061078c82610a84565b602082019050919050565b6107a0816109ce565b82525050565b60006060820190506107bb6000830186610765565b6107c86020830185610765565b6107d56040830184610797565b949350505050565b60006040820190506107f26000830185610765565b6107ff6020830184610797565b9392505050565b6000602082019050818103600083015261081f81610774565b9050919050565b600060208201905061083b6000830184610797565b92915050565b60006040820190506108566000830185610797565b6108636020830184610797565b9392505050565b600082825260208201905092915050565b6000610886826109ce565b9150610891836109ce565b9250827fffffffffffffffffffffffffffffffffffffffffffffffffffffffffffffffff038211156108c6576108c5610a21565b5b828201905092915050565b60006108dc826109ce565b91506108e7836109ce565b9250826108f7576108f6610a50565b5b828204905092915050565b600061090d826109ce565b9150610918836109ce565b9250817fffffffffffffffffffffffffffffffffffffffffffffffffffffffffffffffff048311821515161561095157610950610a21565b5b828202905092915050565b6000610967826109ce565b9150610972836109ce565b92508282101561098557610984610a21565b5b828203905092915050565b600061099b826109ae565b9050919050565b60008115159050919050565b600073ffffffffffffffffffffffffffffffffffffffff82169050919050565b6000819050919050565b60006109e3826109ce565b91507fffffffffffffffffffffffffffffffffffffffffffffffffffffffffffffffff821415610a1657610a15610a21565b5b600182019050919050565b7f4e487b7100000000000000000000000000000000000000000000000000000000600052601160045260246000fd5b7f4e487b7100000000000000000000000000000000000000000000000000000000600052601260045260246000fd5b600080fd5b7f5769746864726177206265666f7265207374616b696e6720616761696e000000600082015250565b610ab681610990565b8114610ac157600080fd5b50565b610acd816109a2565b8114610ad857600080fd5b50565b610ae4816109ce565b8114610aef57600080fd5b5056fea2646970667358221220b592a08231f7610d3c774cfabdf67e4ce88115204423d83427caa7a87a8e06fd64736f6c63430008050033",
  "linkReferences": {},
  "deployedLinkReferences": {}
}